{
    "abi": [
        {
            "type": "constructor",
            "inputs": [],
            "stateMutability": "nonpayable"
        },
        {
            "type": "function",
            "name": "DOMAIN_SEPARATOR",
            "inputs": [],
            "outputs": [
                {
                    "name": "",
                    "type": "bytes32",
                    "internalType": "bytes32"
                }
            ],
            "stateMutability": "view"
        },
        {
            "type": "function",
            "name": "allowance",
            "inputs": [
                {
                    "name": "owner",
                    "type": "address",
                    "internalType": "address"
                },
                {
                    "name": "spender",
                    "type": "address",
                    "internalType": "address"
                }
            ],
            "outputs": [
                {
                    "name": "",
                    "type": "uint256",
                    "internalType": "uint256"
                }
            ],
            "stateMutability": "view"
        },
        {
            "type": "function",
            "name": "approve",
            "inputs": [
                {
                    "name": "spender",
                    "type": "address",
                    "internalType": "address"
                },
                {
                    "name": "value",
                    "type": "uint256",
                    "internalType": "uint256"
                }
            ],
            "outputs": [
                {
                    "name": "",
                    "type": "bool",
                    "internalType": "bool"
                }
            ],
            "stateMutability": "nonpayable"
        },
        {
            "type": "function",
            "name": "balanceOf",
            "inputs": [
                {
                    "name": "account",
                    "type": "address",
                    "internalType": "address"
                }
            ],
            "outputs": [
                {
                    "name": "",
                    "type": "uint256",
                    "internalType": "uint256"
                }
            ],
            "stateMutability": "view"
        },
        {
            "type": "function",
            "name": "decimals",
            "inputs": [],
            "outputs": [
                {
                    "name": "",
                    "type": "uint8",
                    "internalType": "uint8"
                }
            ],
            "stateMutability": "view"
        },
        {
            "type": "function",
            "name": "eip712Domain",
            "inputs": [],
            "outputs": [
                {
                    "name": "fields",
                    "type": "bytes1",
                    "internalType": "bytes1"
                },
                {
                    "name": "name",
                    "type": "string",
                    "internalType": "string"
                },
                {
                    "name": "version",
                    "type": "string",
                    "internalType": "string"
                },
                {
                    "name": "chainId",
                    "type": "uint256",
                    "internalType": "uint256"
                },
                {
                    "name": "verifyingContract",
                    "type": "address",
                    "internalType": "address"
                },
                {
                    "name": "salt",
                    "type": "bytes32",
                    "internalType": "bytes32"
                },
                {
                    "name": "extensions",
                    "type": "uint256[]",
                    "internalType": "uint256[]"
                }
            ],
            "stateMutability": "view"
        },
        {
            "type": "function",
            "name": "name",
            "inputs": [],
            "outputs": [
                {
                    "name": "",
                    "type": "string",
                    "internalType": "string"
                }
            ],
            "stateMutability": "view"
        },
        {
            "type": "function",
            "name": "nonces",
            "inputs": [
                {
                    "name": "owner",
                    "type": "address",
                    "internalType": "address"
                }
            ],
            "outputs": [
                {
                    "name": "",
                    "type": "uint256",
                    "internalType": "uint256"
                }
            ],
            "stateMutability": "view"
        },
        {
            "type": "function",
            "name": "permit",
            "inputs": [
                {
                    "name": "owner",
                    "type": "address",
                    "internalType": "address"
                },
                {
                    "name": "spender",
                    "type": "address",
                    "internalType": "address"
                },
                {
                    "name": "value",
                    "type": "uint256",
                    "internalType": "uint256"
                },
                {
                    "name": "deadline",
                    "type": "uint256",
                    "internalType": "uint256"
                },
                {
                    "name": "v",
                    "type": "uint8",
                    "internalType": "uint8"
                },
                {
                    "name": "r",
                    "type": "bytes32",
                    "internalType": "bytes32"
                },
                {
                    "name": "s",
                    "type": "bytes32",
                    "internalType": "bytes32"
                }
            ],
            "outputs": [],
            "stateMutability": "nonpayable"
        },
        {
            "type": "function",
            "name": "proposalIds",
            "inputs": [],
            "outputs": [
                {
                    "name": "",
                    "type": "uint256",
                    "internalType": "uint256"
                }
            ],
            "stateMutability": "view"
        },
        {
            "type": "function",
            "name": "proposals",
            "inputs": [
                {
                    "name": "",
                    "type": "uint256",
                    "internalType": "uint256"
                }
            ],
            "outputs": [
                {
                    "name": "btcAddress",
                    "type": "string",
                    "internalType": "string"
                },
                {
                    "name": "amount",
                    "type": "uint256",
                    "internalType": "uint256"
                }
            ],
            "stateMutability": "view"
        },
        {
            "type": "function",
            "name": "sendBTCProposal",
            "inputs": [
                {
                    "name": "btcAddress",
                    "type": "string",
                    "internalType": "string"
                },
                {
                    "name": "amount",
                    "type": "uint256",
                    "internalType": "uint256"
                }
            ],
            "outputs": [],
            "stateMutability": "nonpayable"
        },
        {
            "type": "function",
            "name": "symbol",
            "inputs": [],
            "outputs": [
                {
                    "name": "",
                    "type": "string",
                    "internalType": "string"
                }
            ],
            "stateMutability": "view"
        },
        {
            "type": "function",
            "name": "totalSupply",
            "inputs": [],
            "outputs": [
                {
                    "name": "",
                    "type": "uint256",
                    "internalType": "uint256"
                }
            ],
            "stateMutability": "view"
        },
        {
            "type": "function",
            "name": "transfer",
            "inputs": [
                {
                    "name": "to",
                    "type": "address",
                    "internalType": "address"
                },
                {
                    "name": "value",
                    "type": "uint256",
                    "internalType": "uint256"
                }
            ],
            "outputs": [
                {
                    "name": "",
                    "type": "bool",
                    "internalType": "bool"
                }
            ],
            "stateMutability": "nonpayable"
        },
        {
            "type": "function",
            "name": "transferFrom",
            "inputs": [
                {
                    "name": "from",
                    "type": "address",
                    "internalType": "address"
                },
                {
                    "name": "to",
                    "type": "address",
                    "internalType": "address"
                },
                {
                    "name": "value",
                    "type": "uint256",
                    "internalType": "uint256"
                }
            ],
            "outputs": [
                {
                    "name": "",
                    "type": "bool",
                    "internalType": "bool"
                }
            ],
            "stateMutability": "nonpayable"
        },
        {
            "type": "function",
            "name": "voteOnProposal",
            "inputs": [
                {
                    "name": "proposalId",
                    "type": "uint256",
                    "internalType": "uint256"
                }
            ],
            "outputs": [],
            "stateMutability": "nonpayable"
        },
        {
            "type": "event",
            "name": "AcceptedBTCProposalEvent",
            "inputs": [
                {
                    "name": "proposalId",
                    "type": "uint256",
                    "indexed": false,
                    "internalType": "uint256"
                },
                {
                    "name": "btcAddress",
                    "type": "string",
                    "indexed": false,
                    "internalType": "string"
                },
                {
                    "name": "amount",
                    "type": "uint256",
                    "indexed": false,
                    "internalType": "uint256"
                }
            ],
            "anonymous": false
        },
        {
            "type": "event",
            "name": "Approval",
            "inputs": [
                {
                    "name": "owner",
                    "type": "address",
                    "indexed": true,
                    "internalType": "address"
                },
                {
                    "name": "spender",
                    "type": "address",
                    "indexed": true,
                    "internalType": "address"
                },
                {
                    "name": "value",
                    "type": "uint256",
                    "indexed": false,
                    "internalType": "uint256"
                }
            ],
            "anonymous": false
        },
        {
            "type": "event",
            "name": "CreateBTCProposalEvent",
            "inputs": [
                {
                    "name": "proposalId",
                    "type": "uint256",
                    "indexed": false,
                    "internalType": "uint256"
                }
            ],
            "anonymous": false
        },
        {
            "type": "event",
            "name": "EIP712DomainChanged",
            "inputs": [],
            "anonymous": false
        },
        {
            "type": "event",
            "name": "Transfer",
            "inputs": [
                {
                    "name": "from",
                    "type": "address",
                    "indexed": true,
                    "internalType": "address"
                },
                {
                    "name": "to",
                    "type": "address",
                    "indexed": true,
                    "internalType": "address"
                },
                {
                    "name": "value",
                    "type": "uint256",
                    "indexed": false,
                    "internalType": "uint256"
                }
            ],
            "anonymous": false
        },
        {
            "type": "error",
            "name": "ECDSAInvalidSignature",
            "inputs": []
        },
        {
            "type": "error",
            "name": "ECDSAInvalidSignatureLength",
            "inputs": [
                {
                    "name": "length",
                    "type": "uint256",
                    "internalType": "uint256"
                }
            ]
        },
        {
            "type": "error",
            "name": "ECDSAInvalidSignatureS",
            "inputs": [
                {
                    "name": "s",
                    "type": "bytes32",
                    "internalType": "bytes32"
                }
            ]
        },
        {
            "type": "error",
            "name": "ERC20InsufficientAllowance",
            "inputs": [
                {
                    "name": "spender",
                    "type": "address",
                    "internalType": "address"
                },
                {
                    "name": "allowance",
                    "type": "uint256",
                    "internalType": "uint256"
                },
                {
                    "name": "needed",
                    "type": "uint256",
                    "internalType": "uint256"
                }
            ]
        },
        {
            "type": "error",
            "name": "ERC20InsufficientBalance",
            "inputs": [
                {
                    "name": "sender",
                    "type": "address",
                    "internalType": "address"
                },
                {
                    "name": "balance",
                    "type": "uint256",
                    "internalType": "uint256"
                },
                {
                    "name": "needed",
                    "type": "uint256",
                    "internalType": "uint256"
                }
            ]
        },
        {
            "type": "error",
            "name": "ERC20InvalidApprover",
            "inputs": [
                {
                    "name": "approver",
                    "type": "address",
                    "internalType": "address"
                }
            ]
        },
        {
            "type": "error",
            "name": "ERC20InvalidReceiver",
            "inputs": [
                {
                    "name": "receiver",
                    "type": "address",
                    "internalType": "address"
                }
            ]
        },
        {
            "type": "error",
            "name": "ERC20InvalidSender",
            "inputs": [
                {
                    "name": "sender",
                    "type": "address",
                    "internalType": "address"
                }
            ]
        },
        {
            "type": "error",
            "name": "ERC20InvalidSpender",
            "inputs": [
                {
                    "name": "spender",
                    "type": "address",
                    "internalType": "address"
                }
            ]
        },
        {
            "type": "error",
            "name": "ERC2612ExpiredSignature",
            "inputs": [
                {
                    "name": "deadline",
                    "type": "uint256",
                    "internalType": "uint256"
                }
            ]
        },
        {
            "type": "error",
            "name": "ERC2612InvalidSigner",
            "inputs": [
                {
                    "name": "signer",
                    "type": "address",
                    "internalType": "address"
                },
                {
                    "name": "owner",
                    "type": "address",
                    "internalType": "address"
                }
            ]
        },
        {
            "type": "error",
            "name": "InvalidAccountNonce",
            "inputs": [
                {
                    "name": "account",
                    "type": "address",
                    "internalType": "address"
                },
                {
                    "name": "currentNonce",
                    "type": "uint256",
                    "internalType": "uint256"
                }
            ]
        },
        {
            "type": "error",
            "name": "InvalidShortString",
            "inputs": []
        },
        {
            "type": "error",
            "name": "StringTooLong",
            "inputs": [
                {
                    "name": "str",
                    "type": "string",
                    "internalType": "string"
                }
            ]
        }
    ],
    "bytecode": {
        "object": "0x61016060405234801561001157600080fd5b506040518060400160405280600b81526020016a2b37ba34b733aa37b5b2b760a91b81525080604051806040016040528060018152602001603160f81b8152506040518060400160405280600b81526020016a2b37ba34b733aa37b5b2b760a91b8152506040518060400160405280600381526020016256544b60e81b81525081600390816100a091906103ed565b5060046100ad82826103ed565b506100bd91508390506005610174565b610120526100cc816006610174565b61014052815160208084019190912060e052815190820120610100524660a05261015960e05161010051604080517f8b73c3c69bb8fe3d512ecc4cf759cc79239f7b179b0ffacaa9a75d522b39400f60208201529081019290925260608201524660808201523060a082015260009060c00160405160208183030381529060405280519060200120905090565b60805250503060c0525061016f336103e86101a7565b61053e565b600060208351101561019057610189836101e6565b90506101a1565b8161019b84826103ed565b5060ff90505b92915050565b6001600160a01b0382166101d65760405163ec442f0560e01b8152600060048201526024015b60405180910390fd5b6101e260008383610224565b5050565b600080829050601f81511115610211578260405163305a27a960e01b81526004016101cd91906104ab565b805161021c826104f9565b179392505050565b6001600160a01b03831661024f578060026000828254610244919061051d565b909155506102c19050565b6001600160a01b038316600090815260208190526040902054818110156102a25760405163391434e360e21b81526001600160a01b038516600482015260248101829052604481018390526064016101cd565b6001600160a01b03841660009081526020819052604090209082900390555b6001600160a01b0382166102dd576002805482900390556102fc565b6001600160a01b03821660009081526020819052604090208054820190555b816001600160a01b0316836001600160a01b03167fddf252ad1be2c89b69c2b068fc378daa952ba7f163c4a11628f55a4df523b3ef8360405161034191815260200190565b60405180910390a3505050565b634e487b7160e01b600052604160045260246000fd5b600181811c9082168061037857607f821691505b60208210810361039857634e487b7160e01b600052602260045260246000fd5b50919050565b601f8211156103e857806000526020600020601f840160051c810160208510156103c55750805b601f840160051c820191505b818110156103e557600081556001016103d1565b50505b505050565b81516001600160401b038111156104065761040661034e565b61041a816104148454610364565b8461039e565b6020601f82116001811461044e57600083156104365750848201515b600019600385901b1c1916600184901b1784556103e5565b600084815260208120601f198516915b8281101561047e578785015182556020948501946001909201910161045e565b508482101561049c5786840151600019600387901b60f8161c191681555b50505050600190811b01905550565b602081526000825180602084015260005b818110156104d957602081860181015160408684010152016104bc565b506000604082850101526040601f19601f83011684010191505092915050565b805160208083015191908110156103985760001960209190910360031b1b16919050565b808201808211156101a157634e487b7160e01b600052601160045260246000fd5b60805160a05160c05160e0516101005161012051610140516116166105986000396000610b0501526000610ad801526000610a8001526000610a58015260006109b3015260006109dd01526000610a0701526116166000f3fe608060405234801561001057600080fd5b506004361061010b5760003560e01c80633d5af2ed116100a257806395d89b411161007157806395d89b4114610223578063a9059cbb1461022b578063add68edc1461023e578063d505accf14610251578063dd62ed3e1461026457600080fd5b80633d5af2ed146101c357806370a08231146101cc5780637ecebe00146101f557806384b0196e1461020857600080fd5b806322c6e548116100de57806322c6e5481461018457806323b872dd14610199578063313ce567146101ac5780633644e515146101bb57600080fd5b8063013cf08b1461011057806306fdde031461013a578063095ea7b31461014f57806318160ddd14610172575b600080fd5b61012361011e366004611023565b61029d565b604051610131929190611082565b60405180910390f35b610142610341565b60405161013191906110a4565b61016261015d3660046110da565b6103d3565b6040519015158152602001610131565b6002545b604051908152602001610131565b61019761019236600461111a565b6103ed565b005b6101626101a73660046111d5565b61047e565b60405160128152602001610131565b6101766104a2565b61017660085481565b6101766101da366004611212565b6001600160a01b031660009081526020819052604090205490565b610176610203366004611212565b6104b1565b6102106104cf565b604051610131979695949392919061122d565b610142610515565b6101626102393660046110da565b610524565b61019761024c366004611023565b610532565b61019761025f3660046112c5565b61077d565b610176610272366004611338565b6001600160a01b03918216600090815260016020908152604080832093909416825291909152205490565b6009602052600090815260409020805481906102b89061136b565b80601f01602080910402602001604051908101604052809291908181526020018280546102e49061136b565b80156103315780601f1061030657610100808354040283529160200191610331565b820191906000526020600020905b81548152906001019060200180831161031457829003601f168201915b5050505050908060010154905082565b6060600380546103509061136b565b80601f016020809104026020016040519081016040528092919081815260200182805461037c9061136b565b80156103c95780601f1061039e576101008083540402835291602001916103c9565b820191906000526020600020905b8154815290600101906020018083116103ac57829003601f168201915b5050505050905090565b6000336103e18185856108b7565b60019150505b92915050565b604080518082018252838152602080820184905260085460009081526009909152919091208151829190819061042390826113f3565b506020918201516001909101556008546040519081527f2eb289a203f878da0682d2e92f6ed54bb3cb6d50d1af78a994d3c8f6449e8732910160405180910390a160088054906000610474836114c8565b9190505550505050565b60003361048c8582856108c9565b610497858585610947565b506001949350505050565b60006104ac6109a6565b905090565b6001600160a01b0381166000908152600760205260408120546103e7565b6000606080600080600060606104e3610ad1565b6104eb610afe565b60408051600080825260208201909252600f60f81b9b939a50919850469750309650945092509050565b6060600480546103509061136b565b6000336103e1818585610947565b6040516370a0823160e01b815233600482015260009030906370a0823190602401602060405180830381865afa158015610570573d6000803e3d6000fd5b505050506040513d601f19601f8201168201806040525081019061059491906114e1565b116105dc5760405162461bcd60e51b81526020600482015260136024820152724e6f20746f6b656e20666f7220766f74696e6760681b60448201526064015b60405180910390fd5b60085481106106235760405162461bcd60e51b81526020600482015260136024820152721a5b9d985b1a59081c1c9bdc1bdcd85b081a59606a1b60448201526064016105d3565b6040516370a0823160e01b815233600482015230906370a0823190602401602060405180830381865afa15801561065e573d6000803e3d6000fd5b505050506040513d601f19601f8201168201806040525081019061068291906114e1565b6000828152600a6020526040812080549091906106a09084906114fa565b925050819055506002306001600160a01b03166318160ddd6040518163ffffffff1660e01b8152600401602060405180830381865afa1580156106e7573d6000803e3d6000fd5b505050506040513d601f19601f8201168201806040525081019061070b91906114e1565b610715919061150d565b6000828152600a6020526040902054111561077a5760008181526009602052604090819020600181015491517f4d76b1faab56457578bcecd9e481926e03ed85bbd2794d08c3cbab6be5cd2ddf9261077192859290919061152f565b60405180910390a15b50565b834211156107a15760405163313c898160e11b8152600481018590526024016105d3565b60007f6e71edae12b1b97f4d1f60370fef10105fa2faae0126114a169c64845d6126c98888886107ee8c6001600160a01b0316600090815260076020526040902080546001810190915590565b6040805160208101969096526001600160a01b0394851690860152929091166060840152608083015260a082015260c0810186905260e001604051602081830303815290604052805190602001209050600061084982610b2b565b9050600061085982878787610b58565b9050896001600160a01b0316816001600160a01b0316146108a0576040516325c0072360e11b81526001600160a01b0380831660048301528b1660248201526044016105d3565b6108ab8a8a8a6108b7565b50505050505050505050565b6108c48383836001610b86565b505050565b6001600160a01b038381166000908152600160209081526040808320938616835292905220546000198114610941578181101561093257604051637dc7a0d960e11b81526001600160a01b038416600482015260248101829052604481018390526064016105d3565b61094184848484036000610b86565b50505050565b6001600160a01b03831661097157604051634b637e8f60e11b8152600060048201526024016105d3565b6001600160a01b03821661099b5760405163ec442f0560e01b8152600060048201526024016105d3565b6108c4838383610c5b565b6000306001600160a01b037f0000000000000000000000000000000000000000000000000000000000000000161480156109ff57507f000000000000000000000000000000000000000000000000000000000000000046145b15610a2957507f000000000000000000000000000000000000000000000000000000000000000090565b6104ac604080517f8b73c3c69bb8fe3d512ecc4cf759cc79239f7b179b0ffacaa9a75d522b39400f60208201527f0000000000000000000000000000000000000000000000000000000000000000918101919091527f000000000000000000000000000000000000000000000000000000000000000060608201524660808201523060a082015260009060c00160405160208183030381529060405280519060200120905090565b60606104ac7f00000000000000000000000000000000000000000000000000000000000000006005610d85565b60606104ac7f00000000000000000000000000000000000000000000000000000000000000006006610d85565b60006103e7610b386109a6565b8360405161190160f01b8152600281019290925260228201526042902090565b600080600080610b6a88888888610e30565b925092509250610b7a8282610eff565b50909695505050505050565b6001600160a01b038416610bb05760405163e602df0560e01b8152600060048201526024016105d3565b6001600160a01b038316610bda57604051634a1406b160e11b8152600060048201526024016105d3565b6001600160a01b038085166000908152600160209081526040808320938716835292905220829055801561094157826001600160a01b0316846001600160a01b03167f8c5be1e5ebec7d5bd14f71427d1e84f3dd0314c0f7b2291e5b200ac8c7c3b92584604051610c4d91815260200190565b60405180910390a350505050565b6001600160a01b038316610c86578060026000828254610c7b91906114fa565b90915550610cf89050565b6001600160a01b03831660009081526020819052604090205481811015610cd95760405163391434e360e21b81526001600160a01b038516600482015260248101829052604481018390526064016105d3565b6001600160a01b03841660009081526020819052604090209082900390555b6001600160a01b038216610d1457600280548290039055610d33565b6001600160a01b03821660009081526020819052604090208054820190555b816001600160a01b0316836001600160a01b03167fddf252ad1be2c89b69c2b068fc378daa952ba7f163c4a11628f55a4df523b3ef83604051610d7891815260200190565b60405180910390a3505050565b606060ff8314610d9f57610d9883610fbc565b90506103e7565b818054610dab9061136b565b80601f0160208091040260200160405190810160405280929190818152602001828054610dd79061136b565b8015610e245780601f10610df957610100808354040283529160200191610e24565b820191906000526020600020905b815481529060010190602001808311610e0757829003601f168201915b505050505090506103e7565b600080807f7fffffffffffffffffffffffffffffff5d576e7357a4501ddfe92f46681b20a0841115610e6b5750600091506003905082610ef5565b604080516000808252602082018084528a905260ff891692820192909252606081018790526080810186905260019060a0016020604051602081039080840390855afa158015610ebf573d6000803e3d6000fd5b5050604051601f1901519150506001600160a01b038116610eeb57506000925060019150829050610ef5565b9250600091508190505b9450945094915050565b6000826003811115610f1357610f136115ca565b03610f1c575050565b6001826003811115610f3057610f306115ca565b03610f4e5760405163f645eedf60e01b815260040160405180910390fd5b6002826003811115610f6257610f626115ca565b03610f835760405163fce698f760e01b8152600481018290526024016105d3565b6003826003811115610f9757610f976115ca565b03610fb8576040516335e2f38360e21b8152600481018290526024016105d3565b5050565b60606000610fc983610ffb565b604080516020808252818301909252919250600091906020820181803683375050509182525060208101929092525090565b600060ff8216601f8111156103e757604051632cd44ac360e21b815260040160405180910390fd5b60006020828403121561103557600080fd5b5035919050565b6000815180845260005b8181101561106257602081850181015186830182015201611046565b506000602082860101526020601f19601f83011685010191505092915050565b604081526000611095604083018561103c565b90508260208301529392505050565b6020815260006110b7602083018461103c565b9392505050565b80356001600160a01b03811681146110d557600080fd5b919050565b600080604083850312156110ed57600080fd5b6110f6836110be565b946020939093013593505050565b634e487b7160e01b600052604160045260246000fd5b6000806040838503121561112d57600080fd5b823567ffffffffffffffff81111561114457600080fd5b8301601f8101851361115557600080fd5b803567ffffffffffffffff81111561116f5761116f611104565b604051601f8201601f19908116603f0116810167ffffffffffffffff8111828210171561119e5761119e611104565b6040528181528282016020018710156111b657600080fd5b8160208401602083013760006020928201830152969401359450505050565b6000806000606084860312156111ea57600080fd5b6111f3846110be565b9250611201602085016110be565b929592945050506040919091013590565b60006020828403121561122457600080fd5b6110b7826110be565b60ff60f81b8816815260e06020820152600061124c60e083018961103c565b828103604084015261125e818961103c565b606084018890526001600160a01b038716608085015260a0840186905283810360c08501528451808252602080870193509091019060005b818110156112b4578351835260209384019390920191600101611296565b50909b9a5050505050505050505050565b600080600080600080600060e0888a0312156112e057600080fd5b6112e9886110be565b96506112f7602089016110be565b95506040880135945060608801359350608088013560ff8116811461131b57600080fd5b9699959850939692959460a0840135945060c09093013592915050565b6000806040838503121561134b57600080fd5b611354836110be565b9150611362602084016110be565b90509250929050565b600181811c9082168061137f57607f821691505b60208210810361139f57634e487b7160e01b600052602260045260246000fd5b50919050565b601f8211156108c457806000526020600020601f840160051c810160208510156113cc5750805b601f840160051c820191505b818110156113ec57600081556001016113d8565b5050505050565b815167ffffffffffffffff81111561140d5761140d611104565b6114218161141b845461136b565b846113a5565b6020601f821160018114611455576000831561143d5750848201515b600019600385901b1c1916600184901b1784556113ec565b600084815260208120601f198516915b828110156114855787850151825560209485019460019092019101611465565b50848210156114a35786840151600019600387901b60f8161c191681555b50505050600190811b01905550565b634e487b7160e01b600052601160045260246000fd5b6000600182016114da576114da6114b2565b5060010190565b6000602082840312156114f357600080fd5b5051919050565b808201808211156103e7576103e76114b2565b60008261152a57634e487b7160e01b600052601260045260246000fd5b500490565b8381526060602082015260008084546115478161136b565b80606086015260018216600081146115665760018114611582576115b6565b60ff1983166080870152608082151560051b87010193506115b6565b87600052602060002060005b838110156115ad5781548882016080015260019091019060200161158e565b87016080019450505b505050604092909201929092529392505050565b634e487b7160e01b600052602160045260246000fdfea26469706673582212205ceef6224b2b9ed1b5e49fed02ffa1117af73080b4b1a039b9a006739fb7a16b64736f6c634300081a0033",
        "linkReferences": {}
    },
    "methodIdentifiers": {
        "DOMAIN_SEPARATOR()": "3644e515",
        "allowance(address,address)": "dd62ed3e",
        "approve(address,uint256)": "095ea7b3",
        "balanceOf(address)": "70a08231",
        "decimals()": "313ce567",
        "eip712Domain()": "84b0196e",
        "name()": "06fdde03",
        "nonces(address)": "7ecebe00",
        "permit(address,address,uint256,uint256,uint8,bytes32,bytes32)": "d505accf",
        "proposalIds()": "3d5af2ed",
        "proposals(uint256)": "013cf08b",
        "sendBTCProposal(string,uint256)": "22c6e548",
        "symbol()": "95d89b41",
        "totalSupply()": "18160ddd",
        "transfer(address,uint256)": "a9059cbb",
        "transferFrom(address,address,uint256)": "23b872dd",
        "voteOnProposal(uint256)": "add68edc"
    },
    "id": 46
}